:030000000208648F
:0C086400787FE4F6D8FD758109020800D9
:1008000075080075093212087C120887208019C308
:10081000E50994FAE5089400500E3080FD74142523
:1008200009F509E43508F50820811AD3E509943261
:10083000E5089400400F3081FD74EC2509F509743A
:10084000FF3508F50830A007C374FF9509F58C2023
:07085000A0BA85098C80B5F8
:0B087C007580FFE4F590F5A0F5B022B8
:0D0857005389F0438902D2A9D2AFD28C227E
:05088700D2A002085799
:03000B0002087078
:0C08700030A004C2A08002D2A0C28D32D1
:00000001FF
